:100000000C942A000C9447000C9447000C94470071
:100010000C9447000C9447000C9447000C94470044
:100020000C9447000C9447000C9447000C94470034
:100030000C9447000C9447000C9447000C94470024
:100040000C9447000C9447000C9447000C94470014
:100050000C94470011241FBECFE5D8E0DEBFCDBF12
:1000600013E0A0E6B0E0E6E4FAE402C005900D92E9
:10007000AA34B107D9F713E0AAE4B3E001C01D9296
:10008000AF34B107E1F70E941B110C9421250C94A9
:100090000000EF92FF920F931F937B018C0120E0F1
:1000A00030E040E05FE40E94F50388238CF0C80153
:1000B000B70120E030E040E05FE40E94C1010E940F
:1000C000B3049B01AC01205030404040504806C072
:1000D000C801B7010E94B3049B01AC01B901CA0178
:1000E0001F910F91FF90EF900895A0E0B0E0EBE733
:1000F000F0E00C94EA24DC012B01FA019C9192308F
:1001000008F439C1EB018881823008F433C194309E
:1001100069F4843009F02FC111969C91119789815F
:10012000981709F428C1A9E2B2E025C1843009F486
:1001300021C18230A9F4923009F01DC19A01AD01AC
:1001400088E0EA010990AE01E90109929E0181501F
:10015000C1F7E201898111969C918923818308C1AD
:10016000923009F407C112962D903C901397EB0141
:100170008A819B811496AD90BD90CD90DC901797AD
:10018000EC80FD800E811F819101281B390BB90184
:1001900037FF04C066277727621B730B6032710537
:1001A0000CF061C0121613066CF537014801062EDB
:1001B00004C096948794779467940A94D2F721E0C8
:1001C00030E040E050E004C0220F331F441F551FB1
:1001D0006A95D2F721503040404050402E213F21B7
:1001E00040235123211531054105510521F021E01E
:1001F00030E040E050E079018A01E628F72808293C
:1002000019293CC0232BD1F1260E371E350146019A
:10021000062E04C096948794779467940A94D2F734
:1002200021E030E040E050E004C0220F331F441FC3
:10023000551F6A95D2F721503040404050402A2146
:100240003B214C215D21211531054105510521F04E
:1002500021E030E040E050E059016A01A628B728CB
:10026000C828D9280BC0821593052CF01C01AA249C
:10027000BB24650103C0EE24FF24870111969C91E5
:10028000D20111968C91981709F445C0992339F041
:10029000A80197012A193B094C095D0906C0A6016E
:1002A00095012E193F09400B510B57FD08C01182D3
:1002B0003382228224833583468357831DC081E0A5
:1002C00081833382228288279927DC01821B930B4A
:1002D000A40BB50B84839583A683B7830DC0220F2F
:1002E000331F441F551F24833583468357838281E0
:1002F000938101979383828324813581468157813D
:10030000DA01C9010197A109B1098F5F9F4FAF4F72
:10031000BF4328F30BC0918333822282EA0CFB1C7B
:100320000C1D1D1DE482F5820683178383E0808304
:10033000248135814681578157FF1AC0C901AA27F8
:1003400097FDA095BA2F81709070A070B0705695EF
:10035000479537952795822B932BA42BB52B848318
:100360009583A683B7838281938101969383828349
:10037000DF0101C0D201CD01CDB7DEB7E2E10C94BF
:100380000625A0E2B0E0E7ECF1E00C94F6246983E6
:100390007A838B839C832D833E834F835887E9E048
:1003A000EE2EF12CEC0EFD1ECE010196B7010E943F
:1003B000A4068E010F5E1F4FCE010596B8010E9464
:1003C000A4068A8991E089278A8BC701B801AE010A
:1003D000475E5F4F0E9475000E94CF05A096E6E041
:1003E0000C941225A0E2B0E0E8EFF1E00C94F624C2
:1003F00069837A838B839C832D833E834F835887C5
:10040000F9E0EF2EF12CEC0EFD1ECE010196B701A6
:100410000E94A4068E010F5E1F4FCE010596B80103
:100420000E94A406C701B801AE01475E5F4F0E945B
:1004300075000E94CF05A096E6E00C941225A0E27C
:10044000B0E0E5E2F2E00C94EA2469837A838B83DE
:100450009C832D833E834F835887CE010196BE0136
:10046000675F7F4F0E94A406CE010596BE016F5EB6
:100470007F4F0E94A4069985923088F08989823046
:10048000C8F0943019F4823051F404C0843029F457
:10049000923081F489E292E0C6C0923049F420E0C3
:1004A0009A858A89981321E02A87CE010996BBC0D4
:1004B000823049F420E09A858A89981321E02A8BBA
:1004C000CE014196B0C02D843E844F8458886D88FB
:1004D0007E888F88988CEE24FF248701AA24BB2471
:1004E000650140E050E060E070E0E0E0F0E0C10174
:1004F00081709070892BE9F0E60CF71C081D191D1E
:100500009A01AB012A0D3B1D4C1D5D1D80E090E062
:10051000A0E0B0E0E614F7040805190520F481E036
:1005200090E0A0E0B0E0BA01A901480F591F6A1F8E
:100530007B1FAA0CBB1CCC1CDD1C97FE08C081E0F5
:1005400090E0A0E0B0E0A82AB92ACA2ADB2A3196B6
:10055000E032F10549F0660C771C881C991C569412
:10056000479437942794C3CFFA85EA892B893C892D
:100570008B859C85280F391F2E5F3F4F17C0CA01FE
:1005800081709070892B61F016950795F794E79428
:1005900080E090E0A0E0B0E8E82AF92A0A2B1B2BC3
:1005A00076956795579547952F5F3F4F77FDE7CF36
:1005B0000CC0440F551F661F771F17FD4160EE0CDE
:1005C000FF1C001F111F21503040403090E05907A0
:1005D00090E0690790E4790760F32B8F3C8FDB0193
:1005E000CA018F779070A070B07080349105A1051A
:1005F000B10561F447FD0AC0E114F10401051105DC
:1006000029F0405C5F4F6F4F7F4F40781A8EFE1786
:1006100011F081E08A8F4D8F5E8F6F8F78A383E01A
:10062000898FCE0149960E94CF05A096E2E10C94F5
:100630000625A8E1B0E0EFE1F3E00C94F224698331
:100640007A838B839C832D833E834F835887B9E0C5
:10065000EB2EF12CEC0EFD1ECE010196B7010E948F
:10066000A4068E010F5E1F4FCE010596B8010E94B1
:10067000A4062985223008F47EC03989323010F46E
:10068000B8017CC08A859A8989278A87243011F02D
:10069000223031F4231709F06EC069E272E06EC0B7
:1006A000343039F41D861E861F86188A1C861B86E8
:1006B00004C0323021F484E08987B7015FC02B8504
:1006C0003C858B899C89281B390B3C872B87ED84C3
:1006D000FE840F851889AD88BE88CF88D88CEA142F
:1006E000FB040C051D0540F4EE0CFF1C001F111F40
:1006F000215030403C872B8720E030E040E050E044
:1007000080E090E0A0E0B0E460E070E0EA14FB0478
:100710000C051D0540F0282B392B4A2B5B2BEA18C2
:10072000FB080C091D09B695A79597958795EE0CC2
:10073000FF1C001F111F6F5F7F4F6F31710531F775
:10074000DA01C9018F779070A070B0708034910584
:10075000A105B10561F427FD0AC0E114F10401050A
:10076000110529F0205C3F4F4F4F5F4F20782D87B8
:100770003E874F87588BBE01675F7F4FCB010E943A
:10078000CF056896EAE00C940E25A8E1B0E0EBEC0A
:10079000F3E00C94F62469837A838B839C832D8306
:1007A0003E834F83588789E0E82EF12CEC0EFD1E26
:1007B000CE010196B7010E94A4068E010F5E1F4F65
:1007C000CE010596B8010E94A4068985823040F0CA
:1007D0008989823028F0C701B8010E941C0701C036
:1007E0008FEF6896E6E00C941225A8E1B0E0EBEFFD
:1007F000F3E00C94F62469837A838B839C832D83A6
:100800003E834F83588789E0E82EF12CEC0EFD1EC5
:10081000CE010196B7010E94A4068E010F5E1F4F04
:10082000CE010596B8010E94A4068985823040F069
:100830008989823028F0C701B8010E941C0701C0D5
:100840008FEF6896E6E00C941225A8E1B0E0EBE2A9
:10085000F4E00C94F62469837A838B839C832D8344
:100860003E834F83588789E0E82EF12CEC0EFD1E65
:10087000CE010196B7010E94A4068E010F5E1F4FA4
:10088000CE010596B8010E94A4068985823040F009
:100890008989823028F0C701B8010E941C0701C075
:1008A00081E06896E6E00C941225A8E0B0E0EBE564
:1008B000F4E00C94F3249B01AC0183E08983DA011A
:1008C000C9018827B7FD83959927AA27BB27B82E8A
:1008D000211531054105510519F482E089833AC09B
:1008E0008823A9F0203080E0380780E0480780E8BE
:1008F000580729F460E070E080E09FEC30C0EE24FF
:10090000FF248701E21AF30A040B150B02C07901D8
:100910008A018EE1C82ED12CDC82CB82ED82FE8250
:100920000F831887C801B7010E9480050197181628
:10093000190684F4082E04C0EE0CFF1C001F111FC2
:100940000A94D2F7ED82FE820F831887C81AD90A5B
:10095000DC82CB82BA82CE0101960E94CF05289616
:10096000E9E00C940F25ACE0B0E0E9EBF4E00C9486
:10097000FA2469837A838B839C83CE010196BE011E
:100980006B5F7F4F0E94A4068D81823061F18230BF
:1009900050F1843021F48E81882351F12EC02F81B3
:1009A000388537FD20C06E812F3131051CF066235C
:1009B000F9F023C08EE190E0821B930B29853A85E4
:1009C0004B855C8504C056954795379527958A9544
:1009D000D2F76623B1F050954095309521953F4F61
:1009E0004F4F5F4F0EC020E030E040E050E009C0C4
:1009F0002FEF3FEF4FEF5FE704C020E030E040E033
:100A000050E8B901CA012C96E2E00C941625A8E042
:100A1000B0E0EDE0F5E00C94F2247B018C0161156F
:100A200071058105910519F482E0898360C083E036
:100A300089838EE1C82ED12CDC82CB82ED82FE82AE
:100A40000F831887C801B7010E948005FC01319708
:100A5000F7FF3BC0222733272E1B3F0B57016801AE
:100A6000022E04C0D694C794B794A7940A94D2F7E0
:100A700040E050E060E070E081E090E0A0E0B0E0B5
:100A800004C0880F991FAA1FBB1F2A95D2F7019790
:100A9000A109B1098E219F21A023B1230097A105AF
:100AA000B10521F041E050E060E070E04A295B29A7
:100AB0006C297D294D835E836F8378878EE190E07A
:100AC0008E1B9F0B9C838B8312C0309781F00E2E60
:100AD00004C0EE0CFF1C001F111F0A94D2F7ED8218
:100AE000FE820F831887CE1ADF0ADC82CB821A823D
:100AF000CE0101960E94CF052896EAE00C940E25BF
:100B0000EF92FF920F931F937B018C0180E0E81618
:100B100080E0F80681E0080780E0180788F48FEF8E
:100B2000E816F1040105110531F028F088E090E0A5
:100B3000A0E0B0E017C080E090E0A0E0B0E012C01C
:100B400080E0E81680E0F80680E0080781E01807FA
:100B500028F088E190E0A0E0B0E004C080E190E0FF
:100B6000A0E0B0E020E230E040E050E0281B390B8C
:100B70004A0B5B0B04C016950795F794E7948A958A
:100B8000D2F7F701EF5CFD4F8081281B3109410945
:100B90005109C9011F910F91FF90EF900895DF92C5
:100BA000EF92FF920F931F93FC01E480F580068182
:100BB0001781D1808081823048F480E090E0A0E10C
:100BC000B0E0E82AF92A0A2B1B2BA5C0843009F4CF
:100BD0009FC0823021F4EE24FF24870105C0E11478
:100BE000F1040105110519F4E0E0F0E096C062811E
:100BF00073819FEF623879070CF05BC022E83FEF0A
:100C0000261B370B2A3131052CF020E030E040E084
:100C100050E02AC0B801A701022E04C0769567955E
:100C2000579547950A94D2F781E090E0A0E0B0E0B4
:100C300004C0880F991FAA1FBB1F2A95D2F70197DE
:100C4000A109B1098E219F21A023B1230097A105FD
:100C5000B10521F081E090E0A0E0B0E09A01AB01A5
:100C6000282B392B4A2B5B2BDA01C9018F77907027
:100C7000A070B07080349105A105B10539F427FF4B
:100C800009C0205C3F4F4F4F5F4F04C0215C3F4F76
:100C90004F4F5F4FE0E0F0E02030A0E03A07A0E0E7
:100CA0004A07A0E45A0710F0E1E0F0E079018A0178
:100CB00027C06038710564F5FB01E158FF4FD8018A
:100CC000C7018F779070A070B07080349105A10536
:100CD000B10539F4E7FE0DC080E490E0A0E0B0E09B
:100CE00004C08FE390E0A0E0B0E0E80EF91E0A1F18
:100CF0001B1F17FF05C016950795F794E7943196CB
:100D000087E016950795F794E7948A95D1F705C083
:100D1000EE24FF248701EFEFF0E06E2F6795662742
:100D20006795902F9F77D794DD24D7948E2F869543
:100D3000492F462B582F5D29B701CA011F910F91EA
:100D4000FF90EF90DF900895FC01DB01408151811D
:100D50002281622F6F7770E0221F2227221F93814A
:100D6000892F880F822B282F30E0991F9927991FF0
:100D700011969C93119721153105A9F5411551053F
:100D80006105710511F482E037C082E89FEF139688
:100D90009C938E9312979A01AB0167E0220F331F49
:100DA000441F551F6A95D1F783E08C930DC0220F25
:100DB000331F441F551F12968D919C9113970197D5
:100DC00013969C938E931297203080E0380780E032
:100DD000480780E4580758F314962D933D934D939C
:100DE0005C93179708952F3F310579F4411551050C
:100DF0006105710519F484E08C93089564FF03C0C4
:100E000081E08C9312C01C9210C02F573040139673
:100E10003C932E93129783E08C9387E0440F551FE9
:100E2000661F771F8A95D1F7706414964D935D9372
:100E30006D937C93179708951F93DC01FB019C91A0
:100E4000923008F447C08081823008F443C0943067
:100E500051F411961C91843099F58181682F70E0CE
:100E6000611B71093FC0843021F0923031F482302F
:100E7000B9F18181882389F12DC011961C911197B8
:100E80008230F1F081811817D9F412962D913C919E
:100E90001397828193818217930794F0281739075B
:100EA000BCF014968D919D910D90BC91A02D248144
:100EB000358146815781281739074A075B0718F49F
:100EC000112341F00AC082179307A407B50740F425
:100ED000112319F061E070E005C06FEF7FEF02C0F1
:100EE00060E070E0CB011F910895DF93CF93CDB701
:100EF000DEB781E062E00E94A01784E462E041E096
:100F00000E94351484E467E041E00E943514CF91DB
:100F1000DF910895DF93CF93CDB7DEB784E462E02D
:100F200040E00E94401584E467E040E00E944015E4
:100F3000CF91DF910895DF93CF93CDB7DEB784E4EF
:100F400062E041E00E944015CF91DF910895DF9368
:100F5000CF93CDB7DEB784E462E040E00E94401555
:100F6000CF91DF910895DF93CF93CDB7DEB784E4BF
:100F700067E041E00E94401510924A03CF91DF9153
:100F80000895DF93CF93CDB7DEB784E467E040E008
:100F90000E94401581E080934A03CF91DF9108952C
:100FA000DF93CF930F92CDB7DEB787E00E9472191F
:100FB000898389818C3130F084E467E041E00E94CC
:100FC000401505C084E467E040E00E94401582E0DF
:100FD00080934A030F90CF91DF910895DF93CF93D1
:100FE000CDB7DEB780914A03823011F40E94D0075A
:100FF000CF91DF910895DF93CF93CDB7DEB784E42F
:1010000063E040E00E94401584E464E040E00E9418
:10101000401584E465E040E00E94401584E466E009
:1010200040E00E944015CF91DF910895DF93CF9368
:10103000CDB7DEB784E463E041E00E94351484E478
:1010400064E041E00E94351484E465E041E00E94E0
:10105000351484E466E041E00E94351481E062E0EA
:101060000E94A017CF91DF910895DF93CF930F9245
:10107000CDB7DEB7898384E4698141E00E944015E1
:10108000898161E00E94B7080F90CF91DF910895A8
:10109000DF93CF930F92CDB7DEB7898384E4698164
:1010A00040E00E944015898160E00E94B7080F90DF
:1010B000CF91DF910895DF93CF9300D000D00F92AE
:1010C000CDB7DEB78B838B81282F30E03D832C8317
:1010D0008C819D8184309105E1F02C813D8125300A
:1010E000310534F48C819D818330910561F022C0FB
:1010F0002C813D812530310591F08C819D81863098
:10110000910599F017C083E00E94CC189A838983D7
:1011100011C084E00E94CC189A8389830BC085E0BB
:101120000E94CC189A83898305C083E00E94CC1862
:101130009A83898389819A8121E0813D920730F4E5
:1011400084E46B8141E00E94401505C084E46B811A
:1011500040E00E9440158B8162E00E94B7080F902A
:101160000F900F900F900F90CF91DF910895DF9324
:10117000CF9300D000D0CDB7DEB789836A83898151
:10118000282F30E03C832B838B819C818430910518
:10119000D1F02B813C812530310534F48B819C8149
:1011A0008330910561F01AC02B813C8125303105D7
:1011B00071F08B819C818630910569F00FC08A8126
:1011C00080934D030BC08A8180934B0307C08A81B3
:1011D00080934E0303C08A8180934C030F900F903D
:1011E0000F900F90CF91DF910895DF93CF93CDB7FC
:1011F000DEB780914D03823019F483E00E945B08D2
:1012000080914B03823019F484E00E945B08809146
:101210004E03823019F485E00E945B0880914C03F4
:10122000823019F486E00E945B08CF91DF91089527
:10123000DF93CF93CDB7DEB70E94EC1ACF91DF9149
:101240000895DF93CF93CDB7DEB70E94181BCF91DF
:10125000DF910895DF93CF93CDB7DEB70E942E1BA9
:10126000CF91DF910895DF93CF9300D00F92CDB748
:10127000DEB70E94F5080E94EE078BE289830E9488
:10128000722180E060E00E945A2180E690E00E9496
:10129000E41F80E061E00E945A2181E790E00E9413
:1012A000E41F03C00E943E2289838981883349F06C
:1012B0008981893331F08981803319F089818A32BB
:1012C00089F78981282F30E03B832A838A819B819B
:1012D00088339105B1F02A813B81293331055CF4D3
:1012E0008A819B818A329105A9F02A813B81203332
:1012F000310569F011C08A819B818933910521F004
:101300000BC00E94F70908C00E94920905C00E9404
:101310009D0B02C00E94AB0A0F900F900F90CF91CF
:10132000DF910895DF93CF9300D00F92CDB7DEB752
:101330000E94F5080E94EE078BE289830E947221C9
:1013400080E060E00E945A2182E890E00E94E41F61
:1013500080E061E00E945A2183E990E00E94E41F4E
:101360003DC00E943E2289838981813349F0898171
:10137000823331F08981833319F089818A3289F788
:101380008981282F30E03B832A838A819B818233A5
:101390009105C9F02A813B81233331055CF48A81B0
:1013A0009B818A329105A9F02A813B812133310545
:1013B00039F011C08A819B818333910539F00BC0CC
:1013C0000E94B30708C00E94C10705C00E94D00751
:1013D00002C00E9433090E943E22898389818A3299
:1013E00019F60F900F900F90CF91DF910895DF9332
:1013F000CF9300D00F92CDB7DEB70E94F5080E94C0
:10140000EE078BE289830E94722180E060E00E94F7
:101410005A2182E890E00E94E41F80E061E00E948F
:101420005A2184EA90E00E94E41F2CC00E943E22D0
:1014300089838981813331F08981823319F08981EF
:101440008A32A1F78981282F30E03B832A838A8161
:101450009B818133910559F02A813B8122333105EB
:1014600049F08A819B818A32910539F008C00E9437
:101470009B0705C00E94A70702C00E9433090E9473
:101480003E22898389818A32A1F60F900F900F90B6
:10149000CF91DF910895DF93CF9300D00F92CDB716
:1014A000DEB70E94F5080E94EE070E9416088BE244
:1014B00089830E94722180E060E00E945A218BEAB9
:1014C00090E00E94E41F80E061E00E945A218CEBD2
:1014D00090E00E94E41F33C00E943E2289838981EC
:1014E000843349F08981853331F089818A3219F05A
:1014F0008981833289F78981282F30E03B832A83D1
:101500008A819B818433910559F02A813B8125335F
:10151000310559F08A819B818332910559F00CC0C5
:1015200083E061E00E94180B07C084E061E00E9444
:10153000180B02C00E94AB0A0E943E228983898157
:101540008A3219F08981833251F60F900F900F90F3
:10155000CF91DF910895DF93CF9300D00F92CDB755
:10156000DEB70E94F5080E94EE078BE289830E9495
:10157000722180E060E00E945A218DEC90E00E9490
:10158000E41F80E061E00E945A218CEB90E00E9411
:10159000E41F41C00E943E2289838981863349F03D
:1015A0008981873331F089818A3219F089818332C8
:1015B00089F78981282F30E03B832A838A819B81A8
:1015C00086339105B1F02A813B81273331055CF4E4
:1015D0008A819B8183329105C9F02A813B812A321D
:1015E000310589F015C08A819B818733910531F0DF
:1015F0000FC085E062E00E94180B0AC086E062E03E
:101600000E94180B05C00E944B0A02C00E943309B9
:101610000E943E22898389818A3221F08981833226
:1016200009F0BBCF0F900F900F90CF91DF910895ED
:10163000DF93CF93CDB7DEB727970FB6F894DEBF11
:101640000FBECDBF8A836B830E94F5080E94EE0710
:101650008BE289830E94722180E060E00E945A211F
:101660008EED90E00E94E41F80E061E00E945A212C
:101670008FEE90E00E94E41F53C00E943E228983B7
:101680008981813349F08981823331F089818333C3
:1016900019F089818A3289F78981282F30E03F83C8
:1016A0002E838E819F8182339105D1F02E813F81DF
:1016B000233331055CF48E819F818A329105C1F01C
:1016C0002E813F812133310539F027C08E819F81E2
:1016D0008333910549F021C08A810E9435081DC0DD
:1016E0008A810E94480819C08A810E945B0815C03F
:1016F0008B81282F30E03D832C838C819D8181302C
:10170000910531F02C813D812230310521F005C059
:101710000E944B0A02C00E94AB0A0E943E228983AB
:1017200089818A3209F0ACCF27960FB6F894DEBFD4
:101730000FBECDBFCF91DF910895DF93CF9300D03F
:101740000F92CDB7DEB70E9418090E94F5080E94DB
:10175000EE078BE289830E94722180E090E060E0D6
:1017600070E00E945A2180E091E00E94E41F80E036
:1017700090E061E070E00E945A2181E191E00E94D6
:10178000E41F2CC00E943E2289838981813331F07D
:101790008981823319F089818A32A1F78981282FC2
:1017A00030E03B832A838A819B818133910559F004
:1017B0002A813B812233310549F08A819B818A321B
:1017C000910539F008C00E94210905C00E942A092C
:1017D00002C00E9433090E943E22898389818A3295
:1017E000A1F60F900F900F90CF91DF910895DF93A6
:1017F000CF9300D000D0CDB7DEB79A8389837C83A6
:101800006B8388E191E062E00E94E1100E943E2239
:101810008332E1F70E94722181E060E00E945A2148
:1018200084E291E00E94E41F81E061E00E945A217D
:1018300083E391E00E94E41F0E943E228332E1F79D
:101840000E94722189819A812B813C81B9010E9479
:101850003E0F0F900F900F900F90CF91DF91089552
:10186000DF93CF93CDB7DEB762970FB6F894DEBFA4
:101870000FBECDBF988B8F877A8B698B0E947221A8
:101880008FE391E063E00E94E1100E943E228332E8
:10189000E1F70E9472218F85988929893A89B901D7
:1018A0000E94430D80E061E00E945A218F85988953
:1018B0000E94E41F80E090E0A8E4B3E48B879C875B
:1018C000AD87BE876B857C858D859E8520E030E069
:1018D0004AEF54E40E941F02DC01CB018F839887FA
:1018E000A987BA876F81788589859A8520E030E05D
:1018F00040E85FE30E94250488232CF481E090E017
:101900009E838D833FC06F81788589859A8520E08D
:101910003FEF4FE757E40E94C50318164CF56B855F
:101920007C858D859E8520E030E040E251E40E9478
:101930001F02DC01CB01BC01CD010E944900DC018A
:10194000CB019E838D830FC088EC90E09C838B83BA
:101950008B819C810197F1F79C838B838D819E8184
:1019600001979E838D838D819E81009769F714C0B6
:101970006F81788589859A850E944900DC01CB01B9
:101980009E838D838D819E819A83898389819A81AB
:101990000197F1F79A8389830E94722162960FB6AC
:1019A000F894DEBF0FBECDBFCF91DF910895DF93D6
:1019B000CF93CDB7DEB769970FB6F894DEBF0FBEF1
:1019C000CDBF9E8B8D8B788F6F8B1A8216C08A81CC
:1019D000882F90E09E012D5F3F4F6AE0A9010E9491
:1019E0009913CE0103962D893E89B9010E94911960
:1019F000882369F48A81865F8A838A81882F90E0B0
:101A00000E94E8138F3F19F08A81823300F3CE01E0
:101A100003962D893E89B9010E949119882319F4F2
:101A200081E0898F26C08A819AE0692F0E94A124D3
:101A3000882F90E0880F991F880F991F880F991F92
:101A40008E5C89838981882F90E09E01235F3F4FC0
:101A500068E0A9010E949913CE010D962F89388D57
:101A6000B9010E949119882319F482E0898F01C07D
:101A7000198E898D69960FB6F894DEBF0FBECDBF63
:101A8000CF91DF910895DF93CF93CDB7DEB7A297C3
:101A90000FB6F894DEBF0FBECDBF98A38F8F7AA389
:101AA00069A385E08D8F8D8D81508D8F8AE491E0C3
:101AB0000E94E41F2F8D38A181E0B90140E021E0B0
:101AC0000E94D50F0E94722186E591E00E94E41FDA
:101AD00029A13AA180E0B90140E021E00E94D50FA0
:101AE0008F8D98A129A13AA1B9010E94D70C8E8FA0
:101AF0000E9472218E8D882369F486E691E00E940F
:101B0000E41FA2960FB6F894DEBF0FBECDBFCF91F3
:101B1000DF9108958E8D813029F480E791E00E9455
:101B2000E41F07C08E8D823021F48DE791E00E9482
:101B3000E41F80E090E0A8E4B3E4898F9A8FAB8F34
:101B4000BC8F698D7A8D8B8D9C8D20E030E04AEFC3
:101B500054E40E941F02DC01CB018D8B9E8BAF8B66
:101B6000B88F6D897E898F89988D20E030E040E8BC
:101B70005FE30E94250488232CF481E090E09C8B95
:101B80008B8B3FC06D897E898F89988D20E03FEFD8
:101B90004FE757E40E94C50318164CF5698D7A8DFE
:101BA0008B8D9C8D20E030E040E251E40E941F02CA
:101BB000DC01CB01BC01CD010E944900DC01CB015D
:101BC0009C8B8B8B0FC088EC90E09A8B898B8989DA
:101BD0009A890197F1F79A8B898B8B899C89019758
:101BE0009C8B8B8B8B899C89009769F714C06D89BE
:101BF0007E898F89988D0E944900DC01CB019C8BE6
:101C00008B8B8B899C89988B8F878F85988901977F
:101C1000F1F7988B8F870E9472218D8D882309F0B0
:101C2000BAC08AE891E00E94E41F80E061E00E946F
:101C30005A218BE991E00E94E41F8CE061E00E9450
:101C40005A2184EA91E00E94E41F8EE18D8F9AC0B0
:101C50008D8D8A30A8F489E061E00E945A2180E3EA
:101C60000E94D91E8AE061E00E945A218D8D882F42
:101C700090E0A0E0B0E0BC01CD010E9414200DC0B6
:101C800089E061E00E945A218D8D882F90E0A0E0CC
:101C9000B0E0BC01CD010E94142080E090E0A8E4F7
:101CA000B4E48B879C87AD87BE876B857C858D85EB
:101CB0009E8520E030E04AEF54E40E941F02DC01E0
:101CC000CB018F839887A987BA876F8178858985AB
:101CD0009A8520E030E040E85FE30E9425048823F5
:101CE0002CF481E090E09E838D833FC06F817885E6
:101CF00089859A8520E03FEF4FE757E40E94C503AE
:101D000018164CF56B857C858D859E8520E030E02E
:101D100040E251E40E941F02DC01CB01BC01CD0175
:101D20000E944900DC01CB019E838D830FC088ECAB
:101D300090E09C838B838B819C810197F1F79C833E
:101D40008B838D819E8101979E838D838D819E8162
:101D5000009769F714C06F81788589859A850E94FC
:101D60004900DC01CB019E838D838D819E819A8306
:101D7000898389819A810197F1F79A8389838D8D6F
:101D800081508D8F8D8D882309F062CF85E08D8FF6
:101D90000E94722188CE8D8D882F90E0A0E0B0E067
:101DA000BC01CD010E94142088EA91E00E94E41F4A
:101DB00080E061E00E945A2184EB91E00E94E41FE0
:101DC0000E943E228332E1F70E9472216CCEDF93A3
:101DD000CF9300D000D000D0CDB7DEB79B838A83ED
:101DE0007D836C838FEF93E00E94E8138983898160
:101DF0008F3F29F48FEF93E060E00E9430138FEF64
:101E000093E00E94E81389838981853019F481E089
:101E10008E832AC08981882F90E09C01220F331F76
:101E2000C901880F991F880F991F820F931F2A815C
:101E30003B81B9010E9461138981882F90E0880F4E
:101E4000991F880F991F880F991FC2962C813D8179
:101E5000B9010E94611389818F5F89838FEF93E0BD
:101E600069810E9430131E828E8126960FB6F894E7
:101E7000DEBF0FBECDBFCF91DF910895DF93CF932B
:101E8000CDB7DEB728970FB6F894DEBF0FBECDBF33
:101E90009C838B837E836D8340C00E9472218AE481
:101EA00091E00E94E41F2B813C8181E0B90140E078
:101EB00021E00E94D50F0E94722181EC91E00E94E6
:101EC000E41F8B819C810E94E41F80E061E00E94FE
:101ED0005A2188EC91E00E94E41F8BE061E00E94AF
:101EE0005A2182ED91E00E94E41F8BE2898303C0B6
:101EF0000E943E2289838981833219F089818A3246
:101F0000B9F789818332F1F089818A3231F4EB812A
:101F1000FC811082ED81FE811082EB81FC81808149
:101F2000882309F4BACF0EC00E94722186E591E0A1
:101F30000E94E41F2D813E8180E0B90140E021E054
:101F40000E94D50FED81FE818081882369F38B810A
:101F50009C812D813E81B9010E94E70E8A830E94F7
:101F600072218A81882359F488ED91E00E94E41F50
:101F70008B819C810E94E41F81E08F830AC08A814B
:101F8000813031F483EE91E00E94E41F1F8201C092
:101F900002C08F818887888528960FB6F894DEBFA7
:101FA0000FBECDBFCF91DF910895DF93CF93CDB713
:101FB000DEB76A970FB6F894DEBF0FBECDBF8C8B2D
:101FC0007E8B6D8B4F8B288F1B8A1A8A198A188AF1
:101FD0008F89688D0E945A218C89282F30E03A8F92
:101FE000298F898D9A8D009731F0298D3A8D213076
:101FF000310541F0D0C08EE392E29B8B8A8B88E062
:102000008F87C9C088E293E29B8B8A8B8AE08F8797
:10201000C2C0EA89FB890995898B89898B3209F4C9
:10202000BAC089898A32B9F48889882309F4B3C08F
:1020300088898150888B9F898889890F688D0E9443
:102040005A2188E00E94D91E9F898889890F688D4E
:102050000E945A21A0C08989833209F4A0C09889BE
:102060008F85981709F49BC08889282F30E08D89C7
:102070009E89FC01E20FF31F898980838889282FBC
:1020800030E08D899E89FC01E20FF31F80810E9460
:10209000D91E8C89882309F07BC080E090E0A0EFF6
:1020A000B1E48B879C87AD87BE876B857C858D85EA
:1020B0009E8520E030E04AEF54E40E941F02DC01DC
:1020C000CB018F839887A987BA876F8178858985A7
:1020D0009A8520E030E040E85FE30E9425048823F1
:1020E0002CF481E090E09E838D833FC06F817885E2
:1020F00089859A8520E03FEF4FE757E40E94C503AA
:1021000018164CF56B857C858D859E8520E030E02A
:1021100040E251E40E941F02DC01CB01BC01CD0171
:102120000E944900DC01CB019E838D830FC088ECA7
:1021300090E09C838B838B819C810197F1F79C833A
:102140008B838D819E8101979E838D838D819E815E
:10215000009769F714C06F81788589859A850E94F8
:102160004900DC01CB019E838D838D819E819A8302
:10217000898389819A810197F1F79A8389838F896D
:102180009889890F688D0E945A218AE20E94D91E7F
:1021900088898F5F888B8989833209F03ACF888953
:1021A000282F30E08D899E89FC01E20FF31F1082F9
:1021B0006A960FB6F894DEBF0FBECDBFCF91DF9108
:1021C0000895DF93CF9300D00F92CDB7DEB79A83F7
:1021D00089836B8383E060E00E945A2181EF91E064
:1021E0000E94E41F8B8161E00E945A2189819A81BB
:1021F0000E94E41F0F900F900F90CF91DF910895F0
:10220000DF93CF93CDB7DEB70E9472218CEF91E0C0
:1022100063E00E94E110CF91DF910895DF93CF93A7
:10222000CDB7DEB70E948A070E94FB070E942A09E9
:10223000CF91DF910895DF93CF93CDB7DEB7EF97BE
:102240000FB6F894DEBF0FBECDBF0E94441B0E94A4
:102250002F228AE0FE01BC96DF01282F1D922A95CD
:10226000E9F788E0FE01F696DF01282F1D922A95F6
:10227000E9F78FEF93E00E94E8138F3F41F4CE011E
:102280008C969E012A5C3F4FB9010E94F70BCE014C
:102290008C969E012A5C3F4FB9010E94300C0E942F
:1022A00016080E9475070E94722187E092E00E9442
:1022B000E41F80E061E00E945A2188E192E00E94E0
:1022C000E41F8BE28BA703C00E943E228BA78BA545
:1022D000813349F08BA5823331F08BA5833319F01C
:1022E0008BA5833289F78BA5A82FB0E0BFAFAEAF27
:1022F0002EAD3FAD2233310509F49FC08EAD9FADA9
:102300008333910564F4AEADBFADA332B10509F4DA
:10231000A4C12EAD3FAD2133310541F0C0CF8EAD0C
:102320009FAD8333910509F40BC1B9CF0E940E1103
:102330000E9400110E943E228332E1F70E94722126
:10234000CE018C969E012A5C3F4FB9010E94430D3D
:1023500080E090E0A6E1B4E48FA398A7A9A7BAA76C
:102360006FA178A589A59AA520E030E04AEF54E452
:102370000E941F02DC01CB018BA39CA3ADA3BEA3D3
:102380006BA17CA18DA19EA120E030E040E85FE33D
:102390000E94250488232CF481E090E09AA389A36D
:1023A0003FC06BA17CA18DA19EA120E03FEF4FE734
:1023B00057E40E94C50318164CF56FA178A589A5AE
:1023C0009AA520E030E040E251E40E941F02DC01C7
:1023D000CB01BC01CD010E944900DC01CB019AA3D5
:1023E00089A30FC088EC90E098A38F8F8F8D98A160
:1023F0000197F1F798A38F8F89A19AA101979AA3CA
:1024000089A389A19AA1009769F714C06BA17CA147
:102410008DA19EA10E944900DC01CB019AA389A352
:1024200089A19AA19E8F8D8F8D8D9E8D0197F1F739
:102430009E8F8D8F0E94722132CF0E94F5080E94DC
:10244000EE071CA61EAACE018C969E012A5C3F4F69
:10245000B9010E943E0F80E090E0A6E1B4E4898FCC
:102460009A8FAB8FBC8F698D7A8D8B8D9C8D20E080
:1024700030E04AEF54E40E941F02DC01CB018D8B57
:102480009E8BAF8BB88F6D897E898F89988D20E068
:1024900030E040E85FE30E94250488232CF481E0CB
:1024A00090E09C8B8B8B3FC06D897E898F89988D46
:1024B00020E03FEF4FE757E40E94C50318164CF5A4
:1024C000698D7A8D8B8D9C8D20E030E040E251E467
:1024D0000E941F02DC01CB01BC01CD010E9449001A
:1024E000DC01CB019C8B8B8B0FC088EC90E09A8B2E
:1024F000898B89899A890197F1F79A8B898B8B89C6
:102500009C8901979C8B8B8B8B899C89009769F7A1
:1025100014C06D897E898F89988D0E944900DC01E5
:10252000CB019C8B8B8B8B899C89988B8F878F851C
:1025300098890197F1F7988B8F870E947221AFCE0F
:102540000E9418140E9472211CA61EAACE018C960D
:102550009E012A5C3F4FB9010E94F70B80E090E09A
:10256000A8E4B3E48B879C87AD87BE876B857C85A9
:102570008D859E8520E030E04AEF54E40E941F02E2
:10258000DC01CB018F839887A987BA876F81788513
:1025900089859A8520E030E040E85FE30E942504C9
:1025A00088232CF481E090E09E838D833FC06F816F
:1025B000788589859A8520E03FEF4FE757E40E94B0
:1025C000C50318164CF56B857C858D859E8520E0AE
:1025D00030E040E251E40E941F02DC01CB01BC016B
:1025E000CD010E944900DC01CB019E838D830FC089
:1025F00088EC90E09C838B838B819C810197F1F721
:102600009C838B838D819E8101979E838D838D8199
:102610009E81009769F714C06F81788589859A85B6
:102620000E944900DC01CB019E838D838D819E81B8
:102630009A83898389819A810197F1F79A838983A3
:102640000E9472211CA61EAACE018C969E012A5CB5
:102650003F4FB9010E94300C22CE0E944B0A1FCE80
:10266000DF93CF9300D00F92CDB7DEB79A838983E3
:102670006B83ECE3F0E08081882F90E082709070B3
:102680000097B9F7EEE3F0E089818083EFE3F0E0B3
:1026900089819A8180709370892F99278083EDE3D7
:1026A000F0E08B818083ECE3F0E084E08083ECE376
:1026B000F0E082E080830F900F900F90CF91DF9138
:1026C0000895DF93CF9300D000D00F92CDB7DEB73F
:1026D0009B838A837D836C83198218C08981282F0C
:1026E00030E08A819B81A901480F591F8981282FD9
:1026F00030E08C819D81FC01E20FF31F2081CA0133
:10270000622F0E94301389818F5F89838981282FEE
:1027100030E08C819D81FC01E20FF31F80818823D2
:10272000E9F60F900F900F900F900F90CF91DF91DF
:1027300008950F931F93DF93CF9300D000D000D064
:10274000CDB7DEB79B838A836C835E834D8319820A
:1027500016C08981282F30E08D819E818C01020F67
:10276000131F8981282F30E08A819B81820F931F5C
:102770000E94E813F801808389818F5F89839981A2
:102780008C81981770F48981882F90E09C012150EA
:1027900030408D819E81FC01E20FF31F80818F3FCD
:1027A000C1F68981815089838981282F30E08D810C
:1027B0009E81FC01E20FF31F108226960FB6F8945B
:1027C000DEBF0FBECDBFCF91DF911F910F91089556
:1027D000DF93CF9300D00F92CDB7DEB79B838A8370
:1027E000ECE3F0E08081882F90E082709070009799
:1027F000B9F7EEE3F0E08A818083EFE3F0E08A81CD
:102800009B8180709370892F99278083ACE3B0E01F
:10281000ECE3F0E0808181608C93EDE3F0E0808177
:10282000898389810F900F900F90CF91DF91089548
:10283000DF93CF9300D0CDB7DEB71A8219820AC0DA
:1028400089819A816FEF0E94301389819A81019664
:102850009A83898389819A8124E08030920780F36A
:102860000F900F90CF91DF910895DF93CF93CDB765
:10287000DEB729970FB6F894DEBF0FBECDBF8983B0
:102880006A834B838B81282F30E03987288788859E
:102890009985009709F477C028853985213031055D
:1028A00009F0E5C08981282F30E03F832E838E8197
:1028B0009F818234910559F12E813F812334310566
:1028C00034F48E819F818134910569F0D0C02E81CE
:1028D0003F812434310509F442C08E819F818336C3
:1028E000910549F1C4C0AAE3B0E0EAE3F0E08081D9
:1028F000482F8A81282F30E081E090E0022E02C02C
:10290000880F991F0A94E2F7842B8C93B0C0A7E339
:10291000B0E0E7E3F0E08081482F8A81282F30E0A3
:1029200081E090E0022E02C0880F991F0A94E2F71E
:10293000842B8C939CC0A4E3B0E0E4E3F0E08081BE
:10294000482F8A81282F30E081E090E0022E02C0DB
:10295000880F991F0A94E2F7842B8C9388C0A1E317
:10296000B0E0E1E3F0E08081482F8A81282F30E059
:1029700081E090E0022E02C0880F991F0A94E2F7CE
:10298000842B8C9374C08981282F30E03D832C8365
:102990008C819D818234910561F12C813D812334AC
:1029A000310534F48C819D818134910569F05FC0DB
:1029B0002C813D812434310509F445C08C819D81F1
:1029C0008336910559F153C0AAE3B0E0EAE3F0E0A1
:1029D0008081482F8A81282F30E081E090E0022E0C
:1029E00002C0880F991F0A94E2F7809584238C9384
:1029F0003EC0A7E3B0E0E7E3F0E08081482F8A81A2
:102A0000282F30E081E090E0022E02C0880F991F4D
:102A10000A94E2F7809584238C9329C0A4E3B0E064
:102A2000E4E3F0E08081482F8A81282F30E081E0C4
:102A300090E0022E02C0880F991F0A94E2F7809559
:102A400084238C9314C0A1E3B0E0E1E3F0E0808143
:102A5000482F8A81282F30E081E090E0022E02C0CA
:102A6000880F991F0A94E2F7809584238C93299606
:102A70000FB6F894DEBF0FBECDBFCF91DF910895A2
:102A8000DF93CF93CDB7DEB729970FB6F894DEBFAB
:102A90000FBECDBF89836A834B838B81282F30E0A3
:102AA0003987288788859985009709F477C0288514
:102AB00039852130310509F0E5C08981282F30E0C2
:102AC0003F832E838E819F818234910559F12E811F
:102AD0003F812334310534F48E819F818134910507
:102AE00069F0D0C02E813F812434310509F442C001
:102AF0008E819F818336910549F1C4C0ABE3B0E07C
:102B0000EBE3F0E08081482F8A81282F30E081E0DC
:102B100090E0022E02C0880F991F0A94E2F7842BDE
:102B20008C93B0C0A8E3B0E0E8E3F0E08081482FE8
:102B30008A81282F30E081E090E0022E02C0880FC9
:102B4000991F0A94E2F7842B8C939CC0A5E3B0E014
:102B5000E5E3F0E08081482F8A81282F30E081E092
:102B600090E0022E02C0880F991F0A94E2F7842B8E
:102B70008C9388C0A2E3B0E0E2E3F0E08081482FCC
:102B80008A81282F30E081E090E0022E02C0880F79
:102B9000991F0A94E2F7842B8C9374C08981282FA3
:102BA00030E03D832C838C819D818234910561F1DD
:102BB0002C813D812334310534F48C819D81813415
:102BC000910569F05FC02C813D812434310509F401
:102BD00045C08C819D818336910559F153C0ABE38B
:102BE000B0E0EBE3F0E08081482F8A81282F30E0CD
:102BF00081E090E0022E02C0880F991F0A94E2F74C
:102C0000809584238C933EC0A8E3B0E0E8E3F0E035
:102C10008081482F8A81282F30E081E090E0022EC9
:102C200002C0880F991F0A94E2F7809584238C9341
:102C300029C0A5E3B0E0E5E3F0E08081482F8A8178
:102C4000282F30E081E090E0022E02C0880F991F0B
:102C50000A94E2F7809584238C9314C0A2E3B0E039
:102C6000E2E3F0E08081482F8A81282F30E081E084
:102C700090E0022E02C0880F991F0A94E2F7809517
:102C800084238C9329960FB6F894DEBF0FBECDBF78
:102C9000CF91DF910895DF93CF9300D000D000D083
:102CA000CDB7DEB789836A835C834B838981282F04
:102CB00030E03E832D834D815E814234510559F1D0
:102CC0008D819E818334910534F42D813E812134A0
:102CD000310569F05BC04D815E814434510509F4D2
:102CE00042C08D819E818336910549F14FC0E9E351
:102CF000F0E08081282F30E08A81882F90E0A901C0
:102D000002C0559547958A95E2F7CA018170EB811B
:102D1000FC8180833BC0E6E3F0E08081282F30E037
:102D20008A81882F90E0A90102C0559547958A9520
:102D3000E2F7CA018170EB81FC81808327C0E3E365
:102D4000F0E08081282F30E08A81882F90E0A9016F
:102D500002C0559547958A95E2F7CA018170EB81CB
:102D6000FC81808313C0E9E3F0E08081282F30E00C
:102D70008A81882F90E0A90102C0559547958A95D0
:102D8000E2F7CA018170EB81FC81808326960FB641
:102D9000F894DEBF0FBECDBFCF91DF910895DF93D2
:102DA000CF9300D000D0CDB7DEB789836A83898105
:102DB000282F30E03C832B838B819C8182349105CA
:102DC000D9F02B813C812334310534F48B819C81F3
:102DD0008134910561F01EC02B813C812434310582
:102DE000A9F08B819C818336910559F013C0EAE3E9
:102DF000F0E08A8180830EC0E7E3F0E08A8180837F
:102E000009C0E4E3F0E08A81808304C0E1E3F0E0FC
:102E10008A8180830F900F900F900F90CF91DF9158
:102E20000895DF93CF9300D000D0CDB7DEB789836C
:102E30006A838981282F30E03C832B838B819C819E
:102E400082349105D9F02B813C812334310534F44F
:102E50008B819C818134910561F01EC02B813C8166
:102E600024343105A9F08B819C818336910559F07A
:102E700013C0EBE3F0E08A8180830EC0E8E3F0E06A
:102E80008A81808309C0E5E3F0E08A81808304C001
:102E9000E2E3F0E08A8180830F900F900F900F9013
:102EA000CF91DF910895DF93CF9300D000D00F92A0
:102EB000CDB7DEB789837B836A838981282F30E091
:102EC0003D832C838C819D8182349105E9F02C8196
:102ED0003D812334310534F48C819D818134910509
:102EE00061F026C02C813D8124343105D9F08C81DC
:102EF0009D818336910579F01BC0E9E3F0E0808184
:102F0000EA81FB81808314C0E6E3F0E08081EA81FE
:102F1000FB8180830DC0E3E3F0E08081EA81FB81E7
:102F2000808306C0E0E3F0E08081EA81FB8180835A
:102F30000F900F900F900F900F90CF91DF91089509
:102F4000DF93CF9300D000D000D0CDB7DEB7898318
:102F50006A838981282F30E03E832D838D819E8175
:102F600081309105C1F02D813E812330310511F171
:102F70008D819E81009761F5A7E2B0E0E7E2F0E085
:102F800080818F7B8C93A7E2B0E0E7E2F0E0808164
:102F90008F778C931DC0A7E2B0E0E7E2F0E080817C
:102FA00080648C93A7E2B0E0E7E2F0E080818F7765
:102FB0008C930EC0A7E2B0E0E7E2F0E0808180648D
:102FC0008C93A7E2B0E0E7E2F0E0808180688C9328
:102FD000A7E2B0E0E7E2F0E080818F7D8C938A8108
:102FE000282F30E03C832B838B819C81803191059D
:102FF00009F46BC02B813C81213131058CF48B812C
:103000009C8184309105A9F12B813C8128303105C8
:1030100009F445C08B819C8182309105A1F0ACC040
:103020002B813C812034310509F47BC08B819C814C
:103030008038910509F48BC02B813C812032310509
:1030400009F459C099C0A6E2B0E0E6E2F0E0808160
:103050008E7F8C93A6E2B0E0E6E2F0E080818D7F87
:103060008C93A6E2B0E0E6E2F0E080818B7F8C9367
:1030700083C0A6E2B0E0E6E2F0E080818E7F8C9330
:10308000A6E2B0E0E6E2F0E0808182608C93A6E206
:10309000B0E0E6E2F0E080818B7F8C936DC0A6E229
:1030A000B0E0E6E2F0E0808181608C93A6E2B0E0DF
:1030B000E6E2F0E0808182608C93A6E2B0E0E6E296
:1030C000F0E080818B7F8C9357C0A6E2B0E0E6E20F
:1030D000F0E080818E7F8C93A6E2B0E0E6E2F0E043
:1030E00080818D7F8C93A6E2B0E0E6E2F0E0808103
:1030F00084608C9341C0A6E2B0E0E6E2F0E080811B
:1031000081608C93A6E2B0E0E6E2F0E080818D7F02
:103110008C93A6E2B0E0E6E2F0E0808184608C93DC
:103120002BC0A6E2B0E0E6E2F0E080818E7F8C93D7
:10313000A6E2B0E0E6E2F0E0808182608C93A6E255
:10314000B0E0E6E2F0E0808184608C9315C0A6E2F6
:10315000B0E0E6E2F0E0808181608C93A6E2B0E02E
:10316000E6E2F0E0808182608C93A6E2B0E0E6E2E5
:10317000F0E0808184608C93A6E2B0E0E6E2F0E0CB
:10318000808180688C9326960FB6F894DEBF0FBEC0
:10319000CDBFCF91DF910895DF93CF9300D00F92F1
:1031A000CDB7DEB78983A7E2B0E0E7E2F0E0808147
:1031B000807D8C93A7E2B0E0E7E2F0E09081898126
:1031C000892B8C93A6E2B0E0E6E2F0E08081806497
:1031D0008C93E6E2F0E0808182958F70882F90E0FA
:1031E000817090700097A9F3A6E2B0E0E6E2F0E00B
:1031F000808180618C93E7E2F0E080818295869502
:103200008770882F90E0817090708823C1F0E4E28D
:10321000F0E080818295869586958370282F30E036
:10322000E5E2F0E08081882F90E0880F991F880FF9
:10323000991FA901482B592B5B834A8311C0E4E2F3
:10324000F0E08081282F30E0E5E2F0E08081882FF7
:1032500090E0982F8827A901482B592B5B834A833C
:103260008A819B810F900F900F90CF91DF910895ED
:10327000DF93CF9300D000D00F92CDB7DEB78D8310
:103280008D810E94CC18CC01A0E0B0E0BC01CD0142
:103290000E940705DC01CB01BC01CD0120E030E03C
:1032A00040EA50E40E941F02DC01CB01BC01CD01C9
:1032B00020E030E040E854E40E941903DC01CB0137
:1032C00089839A83AB83BC8389819A81AB81BC81DA
:1032D000BC01CD010F900F900F900F900F90CF91E8
:1032E000DF910895DF93CF930F92CDB7DEB7898337
:1032F00089810E943819DC01CB01BC01CD0120E09D
:1033000030E048EC52E40E941F02DC01CB01BC011A
:10331000CD010E944900DC01CB010F90CF91DF91DC
:103320000895DF93CF9300D000D000D0CDB7DEB7A3
:103330009B838A837D836C83198219C08981282F9E
:1033400030E08A819B81FC01E20FF31F808188239A
:1033500011F18981282F30E08C819D81FC01E20FE1
:10336000F31F80818823B9F089818F5F89838981E8
:10337000282F30E08A819B81FC01E20FF31F4081FE
:103380008981282F30E08C819D81FC01E20FF31FA1
:103390008081481799F28981282F30E08A819B81AA
:1033A000FC01E20FF31F8081882371F48981282FAB
:1033B00030E08C819D81FC01E20FF31F8081882326
:1033C00019F481E08E8301C01E828E8126960FB68D
:1033D000F894DEBF0FBECDBFCF91DF910895EF927D
:1033E000FF920F931F93DF93CF93CDB7DEB76A970A
:1033F0000FB6F894DEBF0FBECDBF698B7A8B8B8B77
:103400009C8B2D8B3E8B4F8B588F1A8F098F898900
:103410009A89AB89BC898D879E87AF87B88B81E0FD
:1034200090E0A0E0B0E089879A87AB87BC8724C092
:1034300089899A89AB89BC892AE030E040E050E074
:10344000BC01CD010E94CF24DA01C901898B9A8B7E
:10345000AB8BBC8B89859A85AB85BC852AE030E037
:1034600040E050E0BC01CD010E948224DC01CB0190
:1034700089879A87AB87BC8789899A89AB89BC89F8
:103480000097A105B105A1F68D899E89AF89B88DF8
:1034900029853A854B855C85BC01CD010E94AD2410
:1034A000DA01C9018D839E83AF83B88781E090E004
:1034B000A0E0B0E089839A83AB83BC8360C0898538
:1034C0009A85AB85BC852AE030E040E050E0BC0145
:1034D000CD010E94AD24DA01C90189879A87AB87A3
:1034E000BC87E98DFA8D80819181A281B3817C01B5
:1034F0008D018D859E85AF85B88929853A854B8557
:103500005C85BC01CD010E94AD24DA01C90129818D
:103510003A814B815C81BC01CD010E948224DC0197
:10352000CB018E0D9F1DA01FB11FE98DFA8D8083E9
:103530009183A283B3838D859E85AF85B8892985C4
:103540003A854B855C85BC01CD010E94AD24DC0130
:10355000CB018D879E87AF87B88B89819A81AB819C
:10356000BC812AE030E040E050E0BC01CD010E9487
:103570008224DC01CB0189839A83AB83BC83898558
:103580009A85AB85BC8582309105A105B10508F00F
:1035900096CFE98DFA8D80819181A281B3812D81B1
:1035A0003E814F815885BC01CD010E948224DC01FF
:1035B000CB01E98DFA8D80839183A283B3836A96D0
:1035C0000FB6F894DEBF0FBECDBFCF91DF911F9134
:1035D0000F91FF90EF900895DF93CF93CDB7DEB7B3
:1035E00082E467E041E00E94351484E460E041E059
:1035F0000E94351484E461E041E00E943514CF91CB
:10360000DF910895DF93CF93CDB7DEB782E467E013
:1036100040E00E94401584E460E040E00E944015D4
:1036200084E461E040E00E944015CF91DF9108956D
:10363000DF93CF93CDB7DEB784E461E040E00E9432
:10364000401582E467E040E00E94401584E460E0B9
:1036500041E00E944015CF91DF910895DF93CF9311
:10366000CDB7DEB784E461E041E00E94401582E41A
:1036700067E040E00E94401584E460E040E00E9482
:103680004015CF91DF9108950F931F93DF93CF9350
:10369000CDB7DEB7C654D0400FB6F894DEBF0FBE2C
:1036A000CDBF81E460E041E00E94351481E461E037
:1036B00041E00E94351481E462E041E00E9435144B
:1036C00083E66FEF0E94CF16FE01ED5BFF4F80E0B7
:1036D00090E0A0EFB1E480839183A283B3838E0155
:1036E000015C1F4FFE01ED5BFF4F608171818281A4
:1036F000938120E030E04AEF54E40E941F02DC0195
:10370000CB01F80180839183A283B383FE01FF96EE
:10371000608171818281938120E030E040E85FE345
:103720000E94250488232CF481E090E09EAF8DAFA9
:1037300046C0FE01FF96608171818281938120E005
:103740003FEF4FE757E40E94C503181664F5FE01EA
:10375000ED5BFF4F608171818281938120E030E0D9
:1037600040E251E40E941F02DC01CB01BC01CD010B
:103770000E944900DC01CB019EAF8DAF0FC088ECE9
:1037800090E09CAF8BAF8BAD9CAD0197F1F79CAFF8
:103790008BAF8DAD9EAD01979EAF8DAF8DAD9EADC4
:1037A000009769F716C0FE01FF96608171818281E2
:1037B00093810E944900DC01CB019EAF8DAF8DAD9E
:1037C0009EAD9AAF89AF89AD9AAD0197F1F79AAFE7
:1037D00089AF88E30E94C91D80E090E0A0E8BFE3C4
:1037E0008DAB9EABAFABB8AF6DA97EA98FA998ADDD
:1037F00020E030E04AEF54E40E941F02DC01CB01DC
:1038000089AB9AABABABBCAB69A97AA98BA99CA9D4
:1038100020E030E040E85FE30E94250488232CF498
:1038200081E090E098AB8FA73FC069A97AA98BA9E6
:103830009CA920E03FEF4FE757E40E94C50318160C
:103840004CF56DA97EA98FA998AD20E030E040E24B
:1038500051E40E941F02DC01CB01BC01CD010E949A
:103860004900DC01CB0198AB8FA70FC088EC90E03A
:103870009EA78DA78DA59EA50197F1F79EA78DA761
:103880008FA598A9019798AB8FA78FA598A90097A6
:1038900069F714C069A97AA98BA99CA90E9449005B
:1038A000DC01CB0198AB8FA78FA598A99CA78BA70C
:1038B0008BA59CA50197F1F79CA78BA78EE00E9492
:1038C000C91D80E090E0A0E8BFE38FA398A7A9A757
:1038D000BAA76FA178A589A59AA520E030E04AEFA4
:1038E00054E40E941F02DC01CB018BA39CA3ADA377
:1038F000BEA36BA17CA18DA19EA120E030E040E899
:103900005FE30E94250488232CF481E090E09AA3D1
:1039100089A33FC06BA17CA18DA19EA120E03FEFB8
:103920004FE757E40E94C50318164CF56FA178A520
:1039300089A59AA520E030E040E251E40E941F02F0
:10394000DC01CB01BC01CD010E944900DC01CB01AF
:103950009AA389A30FC088EC90E098A38F8F8F8DD6
:1039600098A10197F1F798A38F8F89A19AA1019748
:103970009AA389A389A19AA1009769F714C06BA1A2
:103980007CA18DA19EA10E944900DC01CB019AA3DC
:1039900089A389A19AA19E8F8D8F8D8D9E8D019770
:1039A000F1F79E8F8D8F81E00E94C91D80E090E02D
:1039B000A0E0B0E4898F9A8FAB8FBC8F698D7A8D30
:1039C0008B8D9C8D20E030E04AEF54E40E941F0272
:1039D000DC01CB018D8B9E8BAF8BB88F6D897E897F
:1039E0008F89988D20E030E040E85FE30E94250455
:1039F00088232CF481E090E09C8B8B8B3FC06D89F9
:103A00007E898F89988D20E03FEF4FE757E40E9431
:103A1000C50318164CF5698D7A8D8B8D9C8D20E031
:103A200030E040E251E40E941F02DC01CB01BC0106
:103A3000CD010E944900DC01CB019C8B8B8B0FC018
:103A400088EC90E09A8B898B89899A890197F1F7A4
:103A50009A8B898B8B899C8901979C8B8B8B8B890B
:103A60009C89009769F714C06D897E898F89988D2C
:103A70000E944900DC01CB019C8B8B8B8B899C893C
:103A8000988B8F878F8598890197F1F7988B8F870F
:103A900086E00E94C91D80E090E0A0E8BFE38B872C
:103AA0009C87AD87BE876B857C858D859E8520E054
:103AB00030E04AEF54E40E941F02DC01CB018F8307
:103AC0009887A987BA876F81788589859A8520E04C
:103AD00030E040E85FE30E94250488232CF481E075
:103AE00090E09E838D833FC06F81788589859A851C
:103AF00020E03FEF4FE757E40E94C50318164CF54E
:103B00006B857C858D859E8520E030E040E251E428
:103B10000E941F02DC01CB01BC01CD010E944900C3
:103B2000DC01CB019E838D830FC088EC90E09C83E9
:103B30008B838B819C810197F1F79C838B838D8193
:103B40009E8101979E838D838D819E81009769F769
:103B500014C06F81788589859A850E944900DC01AF
:103B6000CB019E838D838D819E819A8389838981F8
:103B70009A810197F1F79A838983CA5BDF4F0FB669
:103B8000F894DEBF0FBECDBFCF91DF911F910F9193
:103B90000895DF93CF93CDB7DEB76D970FB6F89446
:103BA000DEBF0FBECDBF8D8F81E460E040E00E949C
:103BB000401581E461E040E00E94401583E66D8D90
:103BC0000E94111781E462E041E00E94401580E00C
:103BD00090E0A0E8BFE3898F9A8FAB8FBC8F698D8F
:103BE0007A8D8B8D9C8D20E030E04AEF54E40E946A
:103BF0001F02DC01CB018D8B9E8BAF8BB88F6D8943
:103C00007E898F89988D20E030E040E85FE30E9454
:103C1000250488232CF481E090E09C8B8B8B3FC0A3
:103C20006D897E898F89988D20E03FEF4FE757E4BB
:103C30000E94C50318164CF5698D7A8D8B8D9C8D6D
:103C400020E030E040E251E40E941F02DC01CB01A1
:103C5000BC01CD010E944900DC01CB019C8B8B8B08
:103C60000FC088EC90E09A8B898B89899A8901979B
:103C7000F1F79A8B898B8B899C8901979C8B8B8B15
:103C80008B899C89009769F714C06D897E898F891B
:103C9000988D0E944900DC01CB019C8B8B8B8B891A
:103CA0009C89988B8F878F8598890197F1F7988BDE
:103CB0008F8781E462E040E00E94401580E090E060
:103CC000A0E8BFE38B879C87AD87BE876B857C852B
:103CD0008D859E8520E030E04AEF54E40E941F026B
:103CE000DC01CB018F839887A987BA876F8178859C
:103CF00089859A8520E030E040E85FE30E94250452
:103D000088232CF481E090E09E838D833FC06F81F7
:103D1000788589859A8520E03FEF4FE757E40E9438
:103D2000C50318164CF56B857C858D859E8520E036
:103D300030E040E251E40E941F02DC01CB01BC01F3
:103D4000CD010E944900DC01CB019E838D830FC011
:103D500088EC90E09C838B838B819C810197F1F7A9
:103D60009C838B838D819E8101979E838D838D8122
:103D70009E81009769F714C06F81788589859A853F
:103D80000E944900DC01CB019E838D838D819E8141
:103D90009A83898389819A810197F1F79A8389832C
:103DA0006D960FB6F894DEBF0FBECDBFCF91DF91F9
:103DB0000895DF93CF93CDB7DEB76D970FB6F89424
:103DC000DEBF0FBECDBF8D8F81E460E041E00E9479
:103DD000401583E66D8D0E94111781E462E041E099
:103DE0000E94401580E090E0A0E8BFE3898F9A8FA1
:103DF000AB8FBC8F698D7A8D8B8D9C8D20E030E0F0
:103E00004AEF54E40E941F02DC01CB018D8B9E8B94
:103E1000AF8BB88F6D897E898F89988D20E030E0D7
:103E200040E85FE30E94250488232CF481E090E0C1
:103E30009C8B8B8B3FC06D897E898F89988D20E00C
:103E40003FEF4FE757E40E94C50318164CF5698D04
:103E50007A8D8B8D9C8D20E030E040E251E40E9411
:103E60001F02DC01CB01BC01CD010E944900DC0135
:103E7000CB019C8B8B8B0FC088EC90E09A8B898B4D
:103E800089899A890197F1F79A8B898B8B899C890B
:103E900001979C8B8B8B8B899C89009769F714C049
:103EA0006D897E898F89988D0E944900DC01CB0144
:103EB0009C8B8B8B8B899C89988B8F878F8598891E
:103EC0000197F1F7988B8F8781E462E040E00E94D0
:103ED000401580E090E0A0E8BFE38B879C87AD872A
:103EE000BE876B857C858D859E8520E030E04AEF1E
:103EF00054E40E941F02DC01CB018F839887A987BD
:103F0000BA876F81788589859A8520E030E040E81E
:103F10005FE30E94250488232CF481E090E09E83D7
:103F20008D833FC06F81788589859A8520E03FEF3A
:103F30004FE757E40E94C50318164CF56B857C8546
:103F40008D859E8520E030E040E251E40E941F0212
:103F5000DC01CB01BC01CD010E944900DC01CB0199
:103F60009E838D830FC088EC90E09C838B838B8134
:103F70009C810197F1F79C838B838D819E810197B2
:103F80009E838D838D819E81009769F714C06F8118
:103F9000788589859A850E944900DC01CB019E8342
:103FA0008D838D819E819A83898389819A810197EE
:103FB000F1F79A8389836D960FB6F894DEBF0FBE32
:103FC000CDBFCF91DF910895DF93CF9300D00F92B3
:103FD000CDB7DEB79B838A83198215C08981803172
:103FE00021F480E061E00E945A218981282F30E08D
:103FF0008A819B81FC01E20FF31F80810E94D91E00
:1040000089818F5F89838981282F30E08A819B8114
:10401000FC01E20FF31F8081882301F70F900F90BE
:104020000F90CF91DF910895DF93CF93CDB7DEB797
:104030002C970FB6F894DEBF0FBECDBF69877A8785
:104040008B879C8789859A85AB85BC850097A10560
:10405000B10521F480E30E94D91E18C089859A8594
:10406000AB85BC85BB2394F48DE20E94D91E898563
:104070009A85AB85BC85B095A095909581959F4F0D
:10408000AF4FBF4F89879A87AB87BC8781E090E0AD
:10409000A0E0B0E08D839E83AF83B88789859A8541
:1040A000AB85BC8589839A83AB83BC8324C0898517
:1040B0009A85AB85BC852AE030E040E050E0BC0149
:1040C000CD010E94CF24DA01C90189879A87AB8785
:1040D000BC878D819E81AF81B8852AE030E040E0C9
:1040E00050E0BC01CD010E948224DC01CB018D8314
:1040F0009E83AF83B88789859A85AB85BC850097F9
:10410000A105B105A1F635C08D819E81AF81B8852D
:104110002AE030E040E050E0BC01CD010E94AD2437
:10412000DA01C9018D839E83AF83B88789819A8123
:10413000AB81BC812D813E814F815885BC01CD0171
:104140000E94AD24DA01C901805D0E94D91E8981D7
:104150009A81AB81BC812D813E814F815885BC0104
:10416000CD010E94AD24DC01CB0189839A83AB830E
:10417000BC838D819E81AF81B88582309105A10578
:10418000B10510F62C960FB6F894DEBF0FBECDBF6A
:10419000CF91DF910895DF93CF93CDB7DEB7289706
:1041A0000FB6F894DEBF0FBECDBF6D837E838F83C5
:1041B00098876D817E818F8198850E94B304DC0190
:1041C000CB01BC01CD010E9414206D817E818F81C5
:1041D00098850E94B304DC01CB01BC01CD010E9493
:1041E00055049B01AC016D817E818F8198850E9471
:1041F000C101DC01CB018D839E83AF83B8878EE242
:104200000E94D91E19821A821B821C8240C06D81B5
:104210007E818F81988520E030E040E251E40E9469
:104220001F02DC01CB018D839E83AF83B8876D8134
:104230007E818F8198850E944900DC01CB01805DE1
:104240000E94D91E6D817E818F8198850E94B30462
:10425000DC01CB01BC01CD010E9455049B01AC01E6
:104260006D817E818F8198850E94C101DC01CB0127
:104270008D839E83AF83B88789819A81AB81BC810E
:104280000196A11DB11D89839A83AB83BC8389816B
:104290009A81AB81BC8184309105A105B10508F4F8
:1042A000B6CF28960FB6F894DEBF0FBECDBFCF9124
:1042B000DF910895DF93CF9300D0CDB7DEB7898328
:1042C0006A838981806889838A81882319F089813A
:1042D0008064898389810E94C91D0F900F90CF91BE
:1042E000DF910895DF93CF93CDB7DEB72E970FB64A
:1042F000F894DEBF0FBECDBF81E00E94C91D80E0F3
:1043000090E0A0E0B0E48B879C87AD87BE876B858B
:104310007C858D859E8520E030E04AEF54E40E9444
:104320001F02DC01CB018F839887A987BA876F8131
:10433000788589859A8520E030E040E85FE30E9437
:10434000250488232CF481E090E09E838D833FC078
:104350006F81788589859A8520E03FEF4FE757E4A4
:104360000E94C50318164CF56B857C858D859E854E
:1043700020E030E040E251E40E941F02DC01CB016A
:10438000BC01CD010E944900DC01CB019E838D83DD
:104390000FC088EC90E09C838B838B819C8101977C
:1043A000F1F79C838B838D819E8101979E838D8302
:1043B0008D819E81009769F714C06F81788589850A
:1043C0009A850E944900DC01CB019E838D838D81FB
:1043D0009E819A83898389819A810197F1F79A83D3
:1043E00089832E960FB6F894DEBF0FBECDBFCF9156
:1043F000DF910895DF93CF9300D000D0CDB7DEB723
:104400009B838A836C838C81882F90E00896880F29
:10441000991F880F991F880F991F0E94C91D198223
:104420000EC08981282F30E08A819B81FC01E20F38
:10443000F31F80810E94D91E89818F5F89838981C2
:10444000883078F380E80E94C91D82E00E94C91D6F
:104450000F900F900F900F90CF91DF910895DF9301
:10446000CF93CDB7DEB782E46FE00E94CF1682E42F
:104470006FE70E941117CF91DF910895DF93CF93DB
:10448000CDB7DEB7A3970FB6F894DEBF0FBECDBF92
:104490008BE2898BCE01429698A38F8FE1E3F3E004
:1044A000FAA3E9A3FCE0FBA3E9A1FAA1008089A19A
:1044B0009AA101969AA389A3EF8DF8A100828F8D0E
:1044C00098A1019698A38F8F9BA191509BA3EBA1DC
:1044D000EE2351F7188AAEC082E4688940E00E945A
:1044E000401584E08F879AC01E8E9E01225E3F4F4A
:1044F00082E46F85A9010E944B168E8D8130C9F030
:104500008889282F30E08F85882F90E0AC014450B7
:104510005040C901880F991F820F931F9E012F5F82
:104520003F4F820F931F840F951FFC01719680816E
:10453000898B80E090E0A0EAB1E48B879C87AD870F
:10454000BE876B857C858D859E8520E030E04AEFB7
:1045500054E40E941F02DC01CB018F839887A98756
:10456000BA876F81788589859A8520E030E040E8B8
:104570005FE30E94250488232CF481E090E09E8371
:104580008D833FC06F81788589859A8520E03FEFD4
:104590004FE757E40E94C50318164CF56B857C85E0
:1045A0008D859E8520E030E040E251E40E941F02AC
:1045B000DC01CB01BC01CD010E944900DC01CB0133
:1045C0009E838D830FC088EC90E09C838B838B81CE
:1045D0009C810197F1F79C838B838D819E8101974C
:1045E0009E838D838D819E81009769F714C06F81B2
:1045F000788589859A850E944900DC01CB019E83DC
:104600008D838D819E819A83898389819A81019787
:10461000F1F79A8389838F858F5F8F878F858730A6
:1046200008F462CF82E4688941E00E9440158889DD
:104630008F5F888B8889843008F44ECF8989A39650
:104640000FB6F894DEBF0FBECDBFCF91DF910895B6
:10465000DF93CF93CDB7DEB7A7970FB6F894DEBF41
:104660000FBECDBF8BE28B8B8BE28A8BCE01449643
:104670009CA38BA3EDE3F3E0FEA3EDA3FCE0FFA37B
:10468000EDA1FEA100808DA19EA101969EA38DA308
:10469000EBA1FCA100828BA19CA101969CA38BA302
:1046A0009FA191509FA3EFA1EE2351F71F86F6C063
:1046B000198AF0C082E4698940E00E94401584E0D4
:1046C000888BDCC018A29E01205E3F4F82E468897F
:1046D000A9010E944B1688A1813009F45AC089892A
:1046E000282F30E08889882F90E0AC01445050405A
:1046F000C901880F991F820F931F9E012F5F3F4FA3
:10470000820F931F840F951FFC01739680818B8B02
:104710008A898B32C9F48989282F30E08889882FCB
:1047200090E0AC0144505040C901880F991F820F9E
:10473000931F9E012F5F3F4F820F931F840F951F82
:10474000FC01739680818A8B9B898A89981721F452
:104750008F858F5F8F870BC09B898A89981739F067
:104760008B89803321F081E08F878B898A8B8A89BE
:10477000893731F48F85833019F4F8E0FAA3B8C093
:104780008B898A3219F08B89833219F48B898AA339
:10479000AFC080E090E0A0EAB1E48B879C87AD8752
:1047A000BE876B857C858D859E8520E030E04AEF55
:1047B00054E40E941F02DC01CB018F839887A987F4
:1047C000BA876F81788589859A8520E030E040E856
:1047D0005FE30E94250488232CF481E090E09E830F
:1047E0008D833FC06F81788589859A8520E03FEF72
:1047F0004FE757E40E94C50318164CF56B857C857E
:104800008D859E8520E030E040E251E40E941F0249
:10481000DC01CB01BC01CD010E944900DC01CB01D0
:104820009E838D830FC088EC90E09C838B838B816B
:104830009C810197F1F79C838B838D819E810197E9
:104840009E838D838D819E81009769F714C06F814F
:10485000788589859A850E944900DC01CB019E8379
:104860008D838D819E819A83898389819A81019725
:10487000F1F79A83898388898F5F888B888987304D
:1048800008F420CF82E4698941E00E9440158989BB
:104890008F5F898B8989843008F40CCF8B898033B2
:1048A00021F08F85833008F403CF8A89282F30E0E8
:1048B0008F85882F90E0820F931F01978136910595
:1048C0009CF08A89282F30E08F85882F90E0820F16
:1048D000931F01978B3791053CF48A899F85890F37
:1048E000982F915099A302C0EBE2E9A3F9A1FAA392
:1048F0008AA1A7960FB6F894DEBF0FBECDBFCF91A9
:10490000DF910895629FD001739FF001829FE00DB7
:10491000F11D649FE00DF11D929FF00D839FF00D3E
:10492000749FF00D659FF00D9927729FB00DE11DEA
:10493000F91F639FB00DE11DF91FBD01CF011124C7
:104940000895991B79E004C0991F961708F0961BEB
:10495000881F7A95C9F780950895A1E21A2EAA1B9F
:10496000BB1BFD010DC0AA1FBB1FEE1FFF1FA2171F
:10497000B307E407F50720F0A21BB30BE40BF50B1C
:10498000661F771F881F991F1A9469F760957095A5
:10499000809590959B01AC01BD01CF01089597FBD7
:1049A000092E05260ED057FD04D0D7DF0AD0001CF3
:1049B00038F450954095309521953F4F4F4F5F4FBC
:1049C0000895F6F790958095709561957F4F8F4F7C
:1049D0009F4F08952F923F924F925F926F927F92D6
:1049E0008F929F92AF92BF92CF92DF92EF92FF92FF
:1049F0000F931F93CF93DF93CDB7DEB7CA1BDB0BAB
:104A00000FB6F894DEBF0FBECDBF09942A8839884F
:104A100048885F846E847D848C849B84AA84B98456
:104A2000C884DF80EE80FD800C811B81AA81B98162
:104A3000CE0FD11D0FB6F894DEBF0FBECDBFED0176
:064A40000895F894FFCF79
:104A4600382E54562020202020202020392E414365
:104A560000302E646F6F72202020202A2E62616340
:104A66006B00312E6F6E20202020202020322E6FEA
:104A7600666600332E6175746F202020202A2E6210
:104A860061636B002A2E6261636B00342E726F6F56
:104A96006D312020352E726F6F6D32002A2E6261C5
:104AA600636B20202020232E6D6F726500362E72D8
:104AB6006F6F6D332020372E726F6F6D3400312E7D
:104AC6006F6E20202020202020322E6F6666003355
:104AD6002E6175746F202020202A2E6261636B0080
:104AE600312E6F70656E202020322E636C6F7365D9
:104AF600002A2E6261636B0023746F2070726F63ED
:104B06006565640064617461207761732072657302
:104B16006574002320746F207369676E75700023B7
:104B260020746F206C6F67696E00696E73657274AE
:104B3600206E616D6500696E7365727420706173B5
:104B460073776F726400636F6E6669726D65640079
:104B5600696E76616C6964206E616D6500696E765A
:104B6600616C69642070617373006D6178696D753D
:104B76006D206F66207472696573007761697420B1
:104B8600666F720073656300207472696573206CCA
:104B9600656674002320746F2070726F63656564A8
:104BA600006E616D653A200023636F6E74696E75E1
:104BB60065002A6261636B00636F6E6669726D657C
:104BC6006420006D6178696D756D2075736572730B
:104BD60000736D61727420686F6D65002320746FB9
:104BE600206C6F67696E00312E6C6F674F7574208D
:104BF600332E726573657400322E6164646E657758
:104C06002020232E6D6F726500000000000000005A
:104C16000000010202030303030404040404040461
:104C2600040505050505050505050505050505052F
:104C3600050606060606060606060606060606060F
:104C460006060606060606060606060606060606FE
:104C560006070707070707070707070707070707DF
:104C660007070707070707070707070707070707CE
:104C760007070707070707070707070707070707BE
:104C860007070707070707070707070707070707AE
:104C9600070808080808080808080808080808088F
:104CA600080808080808080808080808080808087E
:104CB600080808080808080808080808080808086E
:104CC600080808080808080808080808080808085E
:104CD600080808080808080808080808080808084E
:104CE600080808080808080808080808080808083E
:104CF600080808080808080808080808080808082E
:104D0600080808080808080808080808080808081D
:104D1600083132333435363738392A3023616467FF
:0A4D26006A6D707376792A3023005D
:00000001FF
